:100000000C9434000C9451000C9451000C94510049
:100010000C9451000C9451000C9451000C9451001C
:100020000C9451000C9451000C9451000C9451000C
:100030000C9451000C9451000C9451000C945100FC
:100040000C9451000C94B1000C941B010C945100C1
:100050000C9451000C9451000C9451000C945100DC
:100060000C9451000C94510011241FBECFEFD8E026
:10007000DEBFCDBF12E0A0E0B1E0E6E6F9E002C0ED
:1000800005900D92A032B107D9F722E0A0E2B2E0CC
:1000900001C01D92A532B207E1F70E946C000C94DA
:1000A000B1040C940000F89421E040E060E080E9A5
:1000B0000E942E0184B1816084B985B1816085B9C7
:1000C00061E080ED90E00E945C01789485B18E7FC4
:1000D00085B981E08EBD0895CF93DF93CDB7DEB7AC
:1000E000C055D1090FB6F894DEBF0FBECDBF0E9438
:1000F000530083E091E00E94BA0180E691E00E9403
:10010000BA0183E091E00E94BA013EB5209120023D
:1001100090912302809124021F923F931F922F936C
:100120001F929F931F928F938EEB91E09F938F93DB
:100130008E010F5F1F4F1F930F930E94C701C801CD
:100140000E94BA012FEF89E698E12150804090404B
:10015000E1F700C000000FB6F894DEBF0FBECDBFC0
:10016000D4CF1F920F920FB60F9211248F939F93AB
:100170009EB580910101813031F49093240284E096
:100180008093010109C080910101823029F490938C
:10019000230284E080930101809102018091210279
:1001A000813041F483E08093220282E08093210237
:1001B00083E035C080912102823051F48091200289
:1001C000809322021092210281E08093000127C0D7
:1001D00080910201823041F0843059F08130E1F4A5
:1001E0008093220284E01BC082E08093220284E09C
:1001F00016C01092220280910001813031F4809368
:10020000010182E0809300010AC082E08093010135
:1002100081E08093000103C081E0809322028093FB
:100220000201809122028EBD9F918F910F900FBE8F
:100230000F901F9018951F920F920FB60F921124D6
:100240008F938091C6008093200281E080932102E9
:100250008F910F900FBE0F901F90189590E49CBD4A
:10026000213019F49CB590689CBD9CB5682B462B39
:10027000492B4CBD803969F018F4823131F014C03B
:10028000813959F0823969F00FC09DB591609DBDEB
:100290000BC09DB591609DBD07C09DB591609DBD92
:1002A00003C09DB591609DBD84FF03C088E284B901
:1002B000089580E184B908952AB122602AB92AB14B
:1002C0002E7F2AB91092C0001092C1001092C20075
:1002D0008433910529F138F48131910569F1823235
:1002E000910521F12EC0803D910571F0803A21E009
:1002F000920721F08836910521F50CC0E0ECF0E082
:100300002081226020831DC0E0ECF0E0208122608B
:10031000208317C0E0ECF0E020812260208311C030
:10032000E0ECF0E02081226020830BC0E0ECF0E004
:1003300020812260208305C0E0ECF0E02081226073
:1003400020839093C5008093C40086E08093C20010
:1003500088E18093C10060FF05C0E1ECF0E080819E
:100360008068808308959091C00095FFFCCF8093B2
:10037000C6000895CF93DF93EC0103C021960E943D
:10038000B30188818111FACFDF91CF910895AEE05A
:10039000B0E0EDECF1E00C9488040D891E8986E054
:1003A0008C831A8309838FEF9FE79E838D83AE0131
:1003B000475E5F4F6F89788DCE0101960E94E901FB
:1003C000EF81F885E00FF11F10822E96E4E00C9487
:1003D000A404ABE0B0E0EFEEF1E00C947A046C0121
:1003E0007B018A01FC0117821682838181FFCCC1C7
:1003F000CE0101963C01F6019381F70193FD8591B1
:1004000093FF81917F01882309F4BAC1853239F4C1
:1004100093FD859193FF81917F01853229F4B60187
:1004200090E00E94E003E7CF912C212C312CFFE1DA
:10043000F315D8F08B3279F038F4803279F08332CA
:10044000A1F4232D20611DC08D3261F0803369F449
:10045000232D216016C0832D8260382EE32DE460A9
:100460003E2E2AC0F32DF8601DC037FC2DC020EDB4
:10047000280F2A3040F08E32B9F436FC81C1232D8A
:100480002064322E19C036FE06C08AE0989E200DE8
:100490001124922E11C0EAE02E9E200D1124222E4E
:1004A000F32DF0623F2E08C08C3621F4832D806836
:1004B000382E02C0883641F4F70193FD859193FFF1
:1004C00081917F018111B3CF982F9F7D95549330F7
:1004D00028F40C5F1F4F9FE399830DC0833631F0E2
:1004E000833771F0833509F059C021C0F80180814C
:1004F00089830E5F1F4F88248394912C530113C06E
:100500002801F2E04F0E511CF801A080B18036FEA8
:1005100003C0692D70E002C06FEF7FEFC5010E943C
:10052000D5034C018201F32DFF773F2E16C0280121
:1005300022E0420E511CF801A080B18036FE03C0BB
:10054000692D70E002C06FEF7FEFC5010E94CA0302
:100550004C01F32DF0683F2E820133FC1BC0822D2D
:1005600090E088169906B0F4B60180E290E00E940F
:10057000E0032A94F4CFF50137FC859137FE819191
:100580005F01B60190E00E94E00321102A9421E06F
:10059000821A91088114910471F7E8C0843611F031
:1005A000893641F5F80137FE07C06081718182818B
:1005B00093810C5F1F4F08C060817181072E000C72
:1005C000880B990B0E5F1F4FF32DFF763F2E97FF81
:1005D00009C090958095709561957F4F8F4F9F4F83
:1005E000F0683F2E2AE030E0A3010E941C04882E10
:1005F000861845C0853731F4232D2F7EB22E2AE090
:1006000030E025C0932D997FB92E8F36C1F018F4B4
:10061000883579F0B5C0803719F0883721F0B0C03F
:10062000E92FE061BE2EB4FE0DC0FB2DF460BF2E9D
:1006300009C034FE0AC0292F2660B22E06C028E069
:1006400030E005C020E130E002C020E132E0F801F6
:10065000B7FE07C060817181828193810C5F1F4F5B
:1006600006C06081718180E090E00E5F1F4FA301A2
:100670000E941C04882E8618FB2DFF773F2E36FE25
:100680000DC0232D2E7FA22E891458F434FE0BC0EA
:1006900032FC09C0832D8E7EA82E05C0B82CA32C59
:1006A00003C0B82C01C0B92CA4FE0FC0FE01E80D98
:1006B000F11D8081803321F49A2D997EA92E09C0E5
:1006C000A2FE06C0B394B39404C08A2D867809F0C4
:1006D000B394A3FC11C0A0FE06C0B21488F4280C89
:1006E000922C9B180EC0B21460F4B60180E290E028
:1006F0000E94E003B394F7CFB21418F42B1802C091
:10070000982C212CA4FE10C0B60180E390E00E943A
:10071000E003A2FE17C0A1FC03C088E790E002C07E
:1007200088E590E0B6010CC08A2D867859F0A1FECC
:1007300002C08BE201C080E2A7FC8DE2B60190E02E
:100740000E94E003891438F4B60180E390E00E942F
:10075000E0039A94F7CF8A94F301E80DF11D8081AC
:10076000B60190E00E94E0038110F5CF222009F449
:1007700042CEB60180E290E00E94E0032A94F6CFD8
:10078000F6018681978102C08FEF9FEF2B96E2E101
:100790000C949604FC010590615070400110D8F74C
:1007A000809590958E0F9F1F0895FC0161507040B9
:1007B00001900110D8F7809590958E0F9F1F089596
:1007C0000F931F93CF93DF93FB01238121FD03C080
:1007D0008FEF9FEF2CC022FF16C0468157812481E6
:1007E00035814217530744F4A081B1819D012F5FE9
:1007F0003F4F318320838C93268137812F5F3F4F7A
:100800003783268314C08B01EC01FB010084F18542
:10081000E02D0995892BE1F6D80116968D919C91D2
:100820001797019617969C938E931697CE01DF919A
:10083000CF911F910F910895FA01AA27283051F105
:10084000203181F1E8946F936E7F6E5F7F4F8F4F01
:100850009F4FAF4FB1E03ED0B4E03CD0670F781F60
:10086000891F9A1FA11D680F791F8A1F911DA11D45
:100870006A0F711D811D911DA11D20D009F468947E
:100880003F912AE0269F11243019305D3193DEF626
:10089000CF010895462F4770405D4193B3E00FD0DC
:1008A000C9F7F6CF462F4F70405D4A3318F0495DC7
:1008B00031FD4052419302D0A9F7EACFB4E0A695AA
:1008C0009795879577956795BA95C9F700976105CC
:1008D000710508959B01AC010A2E06945795479522
:1008E00037952795BA95C9F7620F731F841F951F17
:1008F000A01D08952F923F924F925F926F927F9228
:100900008F929F92AF92BF92CF92DF92EF92FF921F
:100910000F931F93CF93DF93CDB7DEB7CA1BDB0BCB
:100920000FB6F894DEBF0FBECDBF09942A88398870
:1009300048885F846E847D848C849B84AA84B98477
:10094000C884DF80EE80FD800C811B81AA81B98183
:10095000CE0FD11D0FB6F894DEBF0FBECDBFED0197
:060960000895F894FFCF9A
:100966000104042D2D2D2D2D2D2D2D2D2D2D2D2D2F
:100976002D2D2D2D2D2D2D2D2D2D2D2D2D2D2D2DA1
:100986002D2D2D2D2D2D2D2D2D2D2D2D2D2D2D2D91
:100996002D2D2D2D2D2D2D2D2D2D2D2D2D2D2D2D81
:1009A6002D2D2D2D2D2D2D2D2D2D2D2D2D2D2D2D71
:1009B6002D2D2D2D2D2D2D2D2D2D2D2D200D0A00DE
:1009C6007C204C41424F5241544F52494F203320D4
:1009D6002D20434F4D554E4943414349D34E205355
:1009E6005049202D204D41455354524F2020202060
:1009F60020202020202020202020202020202020F1
:100A060020202020202020202020202020202020E0
:100A16002020202020202020207C200D0A007C2061
:100A2600504F54454E43494F4D4554524F20312067
:100A36003A2025303375207C20504F54454E43498B
:100A46004F4D4554524F2032203D202530337520DE
:100A56007C20554152542056414C5545203D202579
:100A6600303375207C204E4558545F54585F4259A8
:100A76005445203D2025303375207C200D0A00008A
:00000001FF
