:100000000C9434000C943E000C943E000C943E0082
:100010000C943E000C943E000C943E000C943E0068
:100020000C943E000C943E000C943E000C943E0058
:100030000C943E000C943E000C943E000C943E0048
:100040000C943E000C943E000C943E000C943E0038
:100050000C943E000C943E000C943E000C943E0028
:100060000C943E000C943E0011241FBECFEFD8E04C
:10007000DEBFCDBF0E9440000C9469000C940000CC
:1000800084B18C6284B984B18F7E84B983E58CBDE0
:1000900085B1846085B990E085B18B7F85B925E312
:1000A0002A95F1F700009EBD0DB407FEFDCF35E3A4
:1000B0003A95F1F7000085B1846085B99F5F8FEFB5
:1000C00029E638E1815020403040E1F700C00000CF
:0600D000E3CFF894FFCF1E
:00000001FF
