:100000000C9434000C9451000C9451000C94510049
:100010000C9451000C9451000C9451000C9451001C
:100020000C9451000C9451000C9451000C9451000C
:100030000C9451000C9451000C9451000C945100FC
:100040000C9451000C9451000C94C9000C94510074
:100050000C9451000C9451000C9451000C945100DC
:100060000C9451000C94510011241FBECFEFD8E026
:10007000DEBFCDBF12E0A0E0B1E0EAEEF8E002C0E2
:1000800005900D92AC31B107D9F722E0ACE1B2E0B6
:1000900001C01D92A032B207E1F70E946C000C94DF
:1000A00073040C940000F89420E040E060E080E9E4
:1000B0000E94D90084B1816084B985B1816085B91D
:1000C00061E080ED90E00E941E01789485B18E7F02
:1000D00085B981E08EBD0895CF93DF93CDB7DEB7AC
:1000E000C055D1090FB6F894DEBF0FBECDBF0E9438
:1000F00053008AE591E00E947C0180E091E00E943B
:100100007C018DE591E00E947C0180E091E00E94FD
:100110007C0120911C0290911E0280911F021F926F
:100120002F931F929F931F928F938BEB91E09F933E
:100130008F938E010F5F1F4F1F930F930E948901B2
:10014000C8010E947C0141E060E085E290E00E94ED
:10015000FC0080931F0242E060E085E290E00E9494
:10016000FC0080931E0283E00E94F70080911D0234
:100170000E94F7002FEF89E698E1215080409040DF
:10018000E1F700C000000FB6F894DEBF0FBECDBF90
:10019000C0CF1F920F920FB60F9211248F938091B0
:1001A000C60080931C028F910F900FBE0F901F907E
:1001B0001895982F9371692B462B40644CBD2130C4
:1001C00019F49CB590689CBD82FF04C09DB59160F8
:1001D0009DBD03C09DB59E7F9DBD84FF04C084B1BD
:1001E0008C6284B9089584B1806184B908958EBD0C
:1001F0000DB407FEFDCF08950F931F93CF93DF93A8
:100200008C01842FF8019081C1E0D0E002C0CC0FB6
:10021000DD1F6A95E2F72C2F2095922390830E9490
:10022000F70080E00E94F700F8018081C82BC083AE
:100230008EB5DF91CF911F910F9108952AB1226061
:100240002AB92AB12E7F2AB91092C0001092C1009B
:100250001092C2008433910529F138F4813191055F
:1002600069F18232910521F12EC0803D910571F036
:10027000803A21E0920721F08836910521F50CC0E3
:10028000E0ECF0E02081226020831DC0E0ECF0E093
:1002900020812260208317C0E0ECF0E02081226002
:1002A000208311C0E0ECF0E02081226020830BC0AD
:1002B000E0ECF0E020812260208305C0E0ECF0E07B
:1002C0002081226020839093C5008093C40086E043
:1002D0008093C20088E18093C10060FF05C0E1EC1B
:1002E000F0E080818068808308959091C00095FF40
:1002F000FCCF8093C6000895CF93DF93EC0103C039
:1003000021960E94750188818111FACFDF91CF91EA
:100310000895AEE0B0E0EFE8F1E00C944A040D89F6
:100320001E8986E08C831A8309838FEF9FE79E8363
:100330008D83AE01475E5F4F6F89788DCE01019648
:100340000E94AB01EF81F885E00FF11F10822E961D
:10035000E4E00C946604ABE0B0E0E1EBF1E00C9477
:100360003C046C017B018A01FC01178216828381A7
:1003700081FFCCC1CE0101963C01F6019381F701CA
:1003800093FD859193FF81917F01882309F4BAC180
:10039000853239F493FD859193FF81917F018532F8
:1003A00029F4B60190E00E94A203E7CF912C212C02
:1003B000312CFFE1F315D8F08B3279F038F480322C
:1003C00079F08332A1F4232D20611DC08D3261F0BC
:1003D000803369F4232D216016C0832D8260382E6E
:1003E000E32DE4603E2E2AC0F32DF8601DC037FCDB
:1003F0002DC020ED280F2A3040F08E32B9F436FCA3
:1004000081C1232D2064322E19C036FE06C08AE039
:10041000989E200D1124922E11C0EAE02E9E200DF0
:100420001124222EF32DF0623F2E08C08C3621F4C9
:10043000832D8068382E02C0883641F4F70193FD81
:10044000859193FF81917F018111B3CF982F9F7D7B
:100450009554933028F40C5F1F4F9FE399830DC090
:10046000833631F0833771F0833509F059C021C0EC
:10047000F801808189830E5F1F4F88248394912C1B
:10048000530113C02801F2E04F0E511CF801A08067
:10049000B18036FE03C0692D70E002C06FEF7FEFC0
:1004A000C5010E9497034C018201F32DFF773F2E77
:1004B00016C0280122E0420E511CF801A080B18034
:1004C00036FE03C0692D70E002C06FEF7FEFC501FB
:1004D0000E948C034C01F32DF0683F2E820133FC07
:1004E0001BC0822D90E088169906B0F4B60180E218
:1004F00090E00E94A2032A94F4CFF50137FC859185
:1005000037FE81915F01B60190E00E94A2032110A5
:100510002A9421E0821A91088114910471F7E8C0AD
:10052000843611F0893641F5F80137FE07C0608145
:100530007181828193810C5F1F4F08C0608171813E
:10054000072E000C880B990B0E5F1F4FF32DFF76C3
:100550003F2E97FF09C090958095709561957F4FCC
:100560008F4F9F4FF0683F2E2AE030E0A3010E949A
:10057000DE03882E861845C0853731F4232D2F7E63
:10058000B22E2AE030E025C0932D997FB92E8F3608
:10059000C1F018F4883579F0B5C0803719F0883784
:1005A00021F0B0C0E92FE061BE2EB4FE0DC0FB2DDE
:1005B000F460BF2E09C034FE0AC0292F2660B22E77
:1005C00006C028E030E005C020E130E002C020E1B4
:1005D00032E0F801B7FE07C06081718182819381AA
:1005E0000C5F1F4F06C06081718180E090E00E5F5C
:1005F0001F4FA3010E94DE03882E8618FB2DFF7774
:100600003F2E36FE0DC0232D2E7FA22E891458F4C6
:1006100034FE0BC032FC09C0832D8E7EA82E05C08F
:10062000B82CA32C03C0B82C01C0B92CA4FE0FC059
:10063000FE01E80DF11D8081803321F49A2D997E11
:10064000A92E09C0A2FE06C0B394B39404C08A2D9B
:10065000867809F0B394A3FC11C0A0FE06C0B214C2
:1006600088F4280C922C9B180EC0B21460F4B601CA
:1006700080E290E00E94A203B394F7CFB21418F482
:100680002B1802C0982C212CA4FE10C0B60180E3C8
:1006900090E00E94A203A2FE17C0A1FC03C088E75D
:1006A00090E002C088E590E0B6010CC08A2D867803
:1006B00059F0A1FE02C08BE201C080E2A7FC8DE2EE
:1006C000B60190E00E94A203891438F4B60180E3D9
:1006D00090E00E94A2039A94F7CF8A94F301E80D68
:1006E000F11D8081B60190E00E94A2038110F5CF38
:1006F000222009F442CEB60180E290E00E94A203DB
:100700002A94F6CFF6018681978102C08FEF9FEF82
:100710002B96E2E10C945804FC0105906150704066
:100720000110D8F7809590958E0F9F1F0895FC01BA
:100730006150704001900110D8F7809590958E0F10
:100740009F1F08950F931F93CF93DF93FB01238186
:1007500021FD03C08FEF9FEF2CC022FF16C0468102
:100760005781248135814217530744F4A081B18118
:100770009D012F5F3F4F318320838C9326813781EA
:100780002F5F3F4F3783268314C08B01EC01FB01A1
:100790000084F185E02D0995892BE1F6D8011696A4
:1007A0008D919C911797019617969C938E9316970F
:1007B000CE01DF91CF911F910F910895FA01AA27E1
:1007C000283051F1203181F1E8946F936E7F6E5F94
:1007D0007F4F8F4F9F4FAF4FB1E03ED0B4E03CD042
:1007E000670F781F891F9A1FA11D680F791F8A1F25
:1007F000911DA11D6A0F711D811D911DA11D20D08C
:1008000009F468943F912AE0269F11243019305D45
:100810003193DEF6CF010895462F4770405D419336
:10082000B3E00FD0C9F7F6CF462F4F70405D4A3383
:1008300018F0495D31FD4052419302D0A9F7EACF4B
:10084000B4E0A6959795879577956795BA95C9F77A
:1008500000976105710508959B01AC010A2E06946D
:100860005795479537952795BA95C9F7620F731F26
:10087000841F951FA01D08952F923F924F925F9263
:100880006F927F928F929F92AF92BF92CF92DF92A0
:10089000EF92FF920F931F93CF93DF93CDB7DEB705
:1008A000CA1BDB0B0FB6F894DEBF0FBECDBF099499
:1008B0002A88398848885F846E847D848C849B84F0
:1008C000AA84B984C884DF80EE80FD800C811B81FE
:1008D000AA81B981CE0FD11D0FB6F894DEBF0FBE2D
:0A08E000CDBFED010895F894FFCF9D
:1008EA002D2D2D2D2D2D2D2D2D2D2D2D2D2D2D2D2E
:1008FA002D2D2D2D2D2D2D2D2D2D2D2D2D2D2D2D1E
:10090A002D2D2D2D2D2D2D2D2D2D2D2D2D2D2D2D0D
:10091A002D2D2D2D2D2D2D2D2D2D2D2D2D2D2D2DFD
:10092A002D2D2D2D2D2D2D2D2D2D2D2D2D2D2D2DED
:10093A002D2D2D2D2D2D2D2D2D200D0A007C204CF9
:10094A0041424F5241544F52494F2033202D2043A8
:10095A004F4D554E4943414349D34E2053504920A8
:10096A002D204D41455354524F2020202020202035
:10097A00202020202020202020202020202020206D
:10098A00202020202020202020202020202020205D
:10099A002020202020207C200D0A007C20504F544B
:1009AA00454E43494F4D4554524F2031203A202558
:1009BA00303375207C20504F54454E43494F4D45A6
:1009CA0054524F2032203D2025303375207C20554B
:1009DA004152542056414C5545203D20253033750F
:1009EA00207C204E4558545F54585F425954452044
:0C09FA003D2025303375207C200D0A00C4
:00000001FF
