S01800004C4142335F5350495F4573636C61766F2E7372656393
S11300000C9434000C9451000C9451000C94510045
S11300100C9451000C9451000C9451000C94510018
S11300200C9451000C9451000C9451000C94510008
S11300300C9451000C9451000C9451000C945100F8
S11300400C9451000C942C010C9451000C9451000C
S11300500C9451000C9451000C9451000C945100D8
S11300600C9451000C94510011241FBECFEFD8E022
S1130070DEBFCDBF11E0A0E0B1E0E8EDF2E002C0E8
S113008005900D92A832B107D9F721E0A8E2B1E0BA
S113009001C01D92AB32B207E1F70E94C0000C947C
S11300A06A010C940000ECE7F0E09081907F90836B
S11300B090818F70982B90830895EAE7F0E0808117
S11300C08064808308950F93ECE7F0E090819F7340
S11300D0908390819064908360FF04C090819062CB
S11300E0908305C0ECE7F0E090819F7D9083EAE780
S11300F0F0E09081987F908390814770492B4083F2
S113010090819068908380FF04C0808188608083A0
S113011005C0EAE7F0E08081877F808320FF0EC07E
S1130120EAE7F0E0808180628083EBE7F0E08081A1
S1130130887F808380810770082B00830E945D0084
S11301400F91089540E019C0242F30E0F901EE0F1B
S1130150FF1FE050FF4F0190F081E02D5081D90145
S1130160A05FBE4F81E090E00C9002C0880F991F01
S11301700A94E2F7852B80834F5F483028F3089573
S11301800E94A20084B1806184B900E020E047E0CD
S113019061E080E00E94630080EC8CBD789480E094
S11301A00E9453000E945D0080917A0086FDFCCF7E
S11301B08091790080932A0181E00E9453000E947B
S11301C05D0080917A0086FDFCCF80917900809358
S11301D02901E5CF90E03DC0292F30E0482F50E0C1
S11301E0092E02C0559547950A94E2F740FF18C0BE
S11301F0F901EE0FFF1FE85EFE4F0190F081E02D44
S11302006081D901A05FBE4F41E050E09A010C909B
S113021002C0220F331F0A94E2F7262B208318C052
S1130220F901EE0FFF1FE85EFE4F0190F081E02D13
S11302306081D901A05FBE4F41E050E09A010C906B
S113024002C0220F331F0A94E2F72095262320834D
S11302509F5F983008F208951F920F920FB60F9285
S113026011242F933F934F935F936F937F938F93B7
S11302709F93AF93BF93EF93FF938EB59091280113
S1130280913029F40E94EA001092280112C08131B1
S113029021F480912A018EBD0CC0823221F4809118
S11302A029018EBD06C0833321F481E080932801A7
S11302B01EBCFF91EF91BF91AF919F918F917F9160
S11302C06F915F914F913F912F910F900FBE0F90BF
S10B02D01F901895F894FFCF6C
S11302D82A002A002A002A002A002A0024002400CE
S11302E802030405060700012B002B002B002B003A
S10B02F82B002B00250025005A
S9030000FC
