:100000000C9434000C9451000C9451000C94510049
:100010000C9451000C9451000C9451000C9451001C
:100020000C9451000C9451000C9451000C9451000C
:100030000C9451000C9451000C9451000C945100FC
:100040000C9451000C94A2000C9451000C9451009B
:100050000C9451000C9451000C9451000C945100DC
:100060000C9451000C94510011241FBECFEFD8E026
:10007000DEBFCDBF11E0A0E0B1E0E8E0F2E002C0F9
:1000800005900D92A831B107D9F721E0A8E1B1E0C0
:1000900001C01D92AA31B207E1F70E94D8000C946A
:1000A00002010C940000ECE7F0E09081907F9083D7
:1000B00090818F70982B90830895EAE7F0E080811B
:1000C0008064808308950F93ECE7F0E090819F7344
:1000D000908390819064908360FF04C090819062CF
:1000E000908305C0ECE7F0E090819F7D9083EAE784
:1000F000F0E09081987F908390814770492B4083F6
:1001000090819068908380FF04C0808188608083A4
:1001100005C0EAE7F0E08081877F808320FF0EC082
:10012000EAE7F0E0808180628083EBE7F0E08081A5
:10013000887F808380810770082B00830E945D0088
:100140000F9108951F920F920FB60F9211248F9363
:100150008EB5813121F4809119018EBD05C08232A6
:1001600019F4809118018EBD8F910F900FBE0F90E2
:100170001F90189540E019C0242F30E0F901EE0FD0
:10018000FF1FE050FF4F0190F081E02D5081D90119
:10019000A05FBE4F81E090E00C9002C0880F991FD5
:1001A0000A94E2F7852B80834F5F483028F3089547
:1001B0000E94BA0084B1806184B900E020E047E089
:1001C00061E080E00E94630080EC8CBD789480E068
:1001D0000E9453000E945D0080917A0086FDFCCF52
:1001E000809179008093190181E00E9453000E9460
:1001F0005D0080917A0086FDFCCF8091790080932C
:080200001801E5CFF894FFCFCF
:100208002A002A002A002A002A002A0024002400A2
:080218000203040506070001C2
:00000001FF
