:100000000C9434000C9451000C9451000C94510049
:100010000C9451000C9451000C9451000C9451001C
:100020000C9451000C9451000C9451000C9451000C
:100030000C9451000C9451000C9451000C945100FC
:100040000C9451000C94A2000C9451000C9451009B
:100050000C9451000C94BA000C9451000C94510073
:100060000C9451000C94510011241FBECFEFD8E026
:10007000DEBFCDBF12E0A0E0B1E0ECEAFAE002C0E2
:1000800005900D92A630B107D9F722E0A6E0B2E0C4
:1000900001C01D92AA30B207E1F70E9483010C94BF
:1000A00054050C940000ECE7F0E09081907F908381
:1000B00090818F70982B90830895EAE7F0E080811B
:1000C0008064808308950F93ECE7F0E090819F7344
:1000D000908390819064908360FF04C090819062CF
:1000E000908305C0ECE7F0E090819F7D9083EAE784
:1000F000F0E09081987F908390814770492B4083F6
:1001000090819068908380FF04C0808188608083A4
:1001100005C0EAE7F0E08081877F808320FF0EC082
:10012000EAE7F0E0808180628083EBE7F0E08081A5
:10013000887F808380810770082B00830E945D0088
:100140000F9108951F920F920FB60F9211248F9363
:100150008EB5813021F4809107028EBD05C08230BA
:1001600019F4809106028EBD8F910F900FBE0F90F3
:100170001F9018951F920F920FB60F9211242F9374
:100180003F934F935F936F937F938F939F93AF931F
:10019000BF93EF93FF938091780090917900309115
:1001A00009022091080232130FC096958795969503
:1001B00087958093070280910101809309028091C5
:1001C00001010E9453000EC09695879596958795DC
:1001D00080930602809108028093090280910802B0
:1001E0000E9453000E945D00FF91EF91BF91AF917B
:1001F0009F918F917F916F915F914F913F912F913F
:100200000F900FBE0F901F90189540E019C0242F3B
:1002100030E0F901EE0FFF1FEE5FFE4F0190F0811D
:10022000E02D5081D901AE5EBE4F81E090E00C9090
:1002300002C0880F991F0A94E2F7852B80834F5FD5
:10024000483028F308950F93F8940E94050100E0C8
:1002500020E047E060E081E00E94630080E00E94CF
:1002600053000E945D0021E040E060E080E00E94D9
:10027000D10160E080ED90E00E94FF0178940F9141
:10028000089590E03DC0292F30E0482F50E0092E1E
:1002900002C0559547950A94E2F740FF18C0F9014E
:1002A000EE0FFF1FE65EFE4F0190F081E02D6081B2
:1002B000D901AE5EBE4F41E050E09A010C9002C001
:1002C000220F331F0A94E2F7262B208318C0F9016E
:1002D000EE0FFF1FE65EFE4F0190F081E02D608182
:1002E000D901AE5EBE4F41E050E09A010C9002C0D1
:1002F000220F331F0A94E2F72095262320839F5F65
:10030000983008F20895CF93DF93CDB7DEB7C0558C
:10031000D1090FB6F894DEBF0FBECDBF0E942301F6
:100320008AE291E00E945D0282E791E00E945D0214
:100330008AE291E00E945D022091070222952F70CF
:100340008091060290E1299F9001112482958F707F
:10035000822B0E9441012091000190910602809120
:1003600007021F922F931F929F931F928F938AEBE6
:1003700091E09F938F938E010F5F1F4F1F930F93F9
:100380000E946A02C8010E945D028FE99FE0019706
:10039000F1F700C000000FB6F894DEBF0FBECDBF6E
:1003A000CBCF90E49CBD213019F49CB590689CBDE6
:1003B0009CB5682B462B492B4CBD803969F018F44D
:1003C000823131F014C0813959F0823969F00FC09F
:1003D0009DB591609DBD0BC09DB591609DBD07C051
:1003E0009DB591609DBD03C09DB591609DBD84FF8D
:1003F00003C088E284B9089580E184B908952AB1E0
:1004000022602AB92AB12E7F2AB91092C000109218
:10041000C1001092C2008433910529F138F4813172
:10042000910569F18232910521F12EC0803D91053F
:1004300071F0803A21E0920721F08836910521F58C
:100440000CC0E0ECF0E02081226020831DC0E0ECD5
:10045000F0E020812260208317C0E0ECF0E02081F2
:100460002260208311C0E0ECF0E020812260208334
:100470000BC0E0ECF0E020812260208305C0E0ECBE
:10048000F0E02081226020839093C5008093C40017
:1004900086E08093C20088E18093C10060FF05C0C0
:1004A000E1ECF0E080818068808308959091C00045
:1004B00095FFFCCF8093C6000895CF93DF93EC01A6
:1004C00003C021960E94560288818111FACFDF91E4
:1004D000CF910895AEE0B0E0E0E7F2E00C942B0598
:1004E0000D891E8986E08C831A8309838FEF9FE72D
:1004F0009E838D83AE01475E5F4F6F89788DCE01FD
:1005000001960E948C02EF81F885E00FF11F1082A6
:100510002E96E4E00C944705ABE0B0E0E2E9F2E0AF
:100520000C941D056C017B018A01FC011782168267
:10053000838181FFCCC1CE0101963C01F6019381FC
:10054000F70193FD859193FF81917F01882309F441
:10055000BAC1853239F493FD859193FF81917F0172
:10056000853229F4B60190E00E948304E7CF912CF4
:10057000212C312CFFE1F315D8F08B3279F038F4CF
:10058000803279F08332A1F4232D20611DC08D3299
:1005900061F0803369F4232D216016C0832D8260C1
:1005A000382EE32DE4603E2E2AC0F32DF8601DC0E6
:1005B00037FC2DC020ED280F2A3040F08E32B9F4E0
:1005C00036FC81C1232D2064322E19C036FE06C0B0
:1005D0008AE0989E200D1124922E11C0EAE02E9EF2
:1005E000200D1124222EF32DF0623F2E08C08C36F0
:1005F00021F4832D8068382E02C0883641F4F7013B
:1006000093FD859193FF81917F018111B3CF982F45
:100610009F7D9554933028F40C5F1F4F9FE399837F
:100620000DC0833631F0833771F0833509F059C03E
:1006300021C0F801808189830E5F1F4F8824839435
:10064000912C530113C02801F2E04F0E511CF80108
:10065000A080B18036FE03C0692D70E002C06FEF4C
:100660007FEFC5010E9478044C018201F32DFF77D2
:100670003F2E16C0280122E0420E511CF801A08036
:10068000B18036FE03C0692D70E002C06FEF7FEFCE
:10069000C5010E946D044C01F32DF0683F2E8201CC
:1006A00033FC1BC0822D90E088169906B0F4B60189
:1006B00080E290E00E9483042A94F4CFF50137FC95
:1006C000859137FE81915F01B60190E00E9483041D
:1006D00021102A9421E0821A91088114910471F763
:1006E000E8C0843611F0893641F5F80137FE07C0BD
:1006F00060817181828193810C5F1F4F08C060818E
:100700007181072E000C880B990B0E5F1F4FF32D84
:10071000FF763F2E97FF09C0909580957095619563
:100720007F4F8F4F9F4FF0683F2E2AE030E0A301AC
:100730000E94BF04882E861845C0853731F4232DCA
:100740002F7EB22E2AE030E025C0932D997FB92E5E
:100750008F36C1F018F4883579F0B5C0803719F0BC
:10076000883721F0B0C0E92FE061BE2EB4FE0DC085
:10077000FB2DF460BF2E09C034FE0AC0292F26606D
:10078000B22E06C028E030E005C020E130E002C013
:1007900020E132E0F801B7FE07C0608171818281FB
:1007A00093810C5F1F4F06C06081718180E090E0F3
:1007B0000E5F1F4FA3010E94BF04882E8618FB2DD9
:1007C000FF773F2E36FE0DC0232D2E7FA22E8914DB
:1007D00058F434FE0BC032FC09C0832D8E7EA82E47
:1007E00005C0B82CA32C03C0B82C01C0B92CA4FEA2
:1007F0000FC0FE01E80DF11D8081803321F49A2D98
:10080000997EA92E09C0A2FE06C0B394B39404C079
:100810008A2D867809F0B394A3FC11C0A0FE06C00F
:10082000B21488F4280C922C9B180EC0B21460F4F9
:10083000B60180E290E00E948304B394F7CFB21433
:1008400018F42B1802C0982C212CA4FE10C0B6015D
:1008500080E390E00E948304A2FE17C0A1FC03C0C5
:1008600088E790E002C088E590E0B6010CC08A2DD0
:10087000867859F0A1FE02C08BE201C080E2A7FC9D
:100880008DE2B60190E00E948304891438F4B60129
:1008900080E390E00E9483049A94F7CF8A94F30156
:1008A000E80DF11D8081B60190E00E948304811063
:1008B000F5CF222009F442CEB60180E290E00E94FA
:1008C00083042A94F6CFF6018681978102C08FEFC8
:1008D0009FEF2B96E2E10C943905FC0105906150E5
:1008E00070400110D8F7809590958E0F9F1F089546
:1008F000FC016150704001900110D8F780959095EF
:100900008E0F9F1F08950F931F93CF93DF93FB01CB
:10091000238121FD03C08FEF9FEF2CC022FF16C063
:1009200046815781248135814217530744F4A081C1
:10093000B1819D012F5F3F4F318320838C932681AE
:1009400037812F5F3F4F3783268314C08B01EC0123
:10095000FB010084F185E02D0995892BE1F6D80192
:1009600016968D919C911797019617969C938E934E
:100970001697CE01DF91CF911F910F910895FA0143
:10098000AA27283051F1203181F1E8946F936E7FCE
:100990006E5F7F4F8F4F9F4FAF4FB1E03ED0B4E0BF
:1009A0003CD0670F781F891F9A1FA11D680F791F00
:1009B0008A1F911DA11D6A0F711D811D911DA11D11
:1009C00020D009F468943F912AE0269F1124301921
:1009D000305D3193DEF6CF010895462F4770405DBC
:1009E0004193B3E00FD0C9F7F6CF462F4F70405D6B
:1009F0004A3318F0495D31FD4052419302D0A9F7C6
:100A0000EACFB4E0A6959795879577956795BA95BF
:100A1000C9F700976105710508959B01AC010A2E85
:100A200006945795479537952795BA95C9F7620F5C
:100A3000731F841F951FA01D08952F923F924F9200
:100A40005F926F927F928F929F92AF92BF92CF925E
:100A5000DF92EF92FF920F931F93CF93DF93CDB767
:100A6000DEB7CA1BDB0B0FB6F894DEBF0FBECDBFDF
:100A700009942A88398848885F846E847D848C84B0
:100A80009B84AA84B984C884DF80EE80FD800C81B9
:100A90001B81AA81B981CE0FD11D0FB6F894DEBF9C
:0C0AA0000FBECDBFED010895F894FFCF0C
:100AAC0005012A002A002A002A002A002A00240014
:100ABC00240002030405060700012B002B002B0069
:100ACC002B002B002B00250025002D2D2D2D2D2D41
:100ADC002D2D2D2D2D2D2D2D2D2D2D2D2D2D2D2D3A
:100AEC002D2D2D2D2D2D2D2D2D2D2D2D2D2D2D2D2A
:100AFC002D2D2D2D2D2D2D2D2D2D2D2D2D2D2D2D1A
:100B0C002D2D2D2D2D2D2D2D2D2D2D2D2D2D200D36
:100B1C000A007C204C41424F5241544F52494F20C5
:100B2C0033202D20434F4D554E4943414349D34E1D
:100B3C0020535049202D204553434C41564F2020E3
:100B4C002020202020202020202020202020202099
:100B5C0020202020207C200D0A007C20504F544562
:100B6C004E43494F4D4554524F2031203A202530A9
:100B7C003375207C20504F54454E43494F4D4554BE
:100B8C00524F2032203D2025303375207C2055419A
:100B9C0052542056414C5545203D2025303375206C
:060BAC007C200D0A000090
:00000001FF
