:100000000C9434000C9449000C9449000C94490061
:100010000C9449000C9449000C9449000C9449003C
:100020000C9449000C9449000C9449000C9449002C
:100030000C9449000C9449000C9449000C9449001C
:100040000C9449000C9449000C9449000C9449000C
:100050000C9449000C9449000C9449000C944900FC
:100060000C9449000C94490011241FBECFEFD8E036
:10007000DEBFCDBF11E0A0E0B1E0E8E3F1E002C0F7
:1000800005900D92A831B107D9F70E948D000C940C
:100090009A000C94000090E03DC0292F30E0482FDA
:1000A00050E0092E02C0559547950A94E2F740FFAB
:1000B00018C0F901EE0FFF1FE85FFE4F0190F081BD
:1000C000E02D6081D901A050BF4F41E050E09A017E
:1000D0000C9002C0220F331F0A94E2F7262B2083D4
:1000E00018C0F901EE0FFF1FE85FFE4F0190F0818D
:1000F000E02D6081D901A050BF4F41E050E09A014E
:100100000C9002C0220F331F0A94E2F72095262399
:1001100020839F5F983008F208958FEF8AB980E1BD
:1001200084B980E48CBD0DB407FEFDCF8EB50E946E
:080130004B00F9CFF894FFCF5A
:1001380002030405060700012B002B002B002B00EF
:080148002B002B00250025000F
:00000001FF
